{
  "_format": "hh-sol-artifact-1",
  "contractName": "BosonRouter",
  "sourceName": "contracts/BosonRouter.sol",
  "abi": [
    {
      "inputs": [
        {
          "internalType": "address",
          "name": "_voucherKernel",
          "type": "address"
        },
        {
          "internalType": "address",
          "name": "_fundLimitsOracle",
          "type": "address"
        },
        {
          "internalType": "address",
          "name": "_cashierAddress",
          "type": "address"
        }
      ],
      "stateMutability": "nonpayable",
      "type": "constructor"
    },
    {
      "anonymous": false,
      "inputs": [
        {
          "indexed": true,
          "internalType": "uint256",
          "name": "_tokenIdSupply",
          "type": "uint256"
        },
        {
          "indexed": false,
          "internalType": "address",
          "name": "_seller",
          "type": "address"
        },
        {
          "indexed": false,
          "internalType": "uint256",
          "name": "_quantity",
          "type": "uint256"
        },
        {
          "indexed": false,
          "internalType": "uint8",
          "name": "_paymentType",
          "type": "uint8"
        },
        {
          "indexed": false,
          "internalType": "uint256",
          "name": "_correlationId",
          "type": "uint256"
        }
      ],
      "name": "LogOrderCreated",
      "type": "event"
    },
    {
      "anonymous": false,
      "inputs": [
        {
          "indexed": true,
          "internalType": "address",
          "name": "previousOwner",
          "type": "address"
        },
        {
          "indexed": true,
          "internalType": "address",
          "name": "newOwner",
          "type": "address"
        }
      ],
      "name": "OwnershipTransferred",
      "type": "event"
    },
    {
      "inputs": [],
      "name": "cashierAddress",
      "outputs": [
        {
          "internalType": "address",
          "name": "",
          "type": "address"
        }
      ],
      "stateMutability": "view",
      "type": "function"
    },
    {
      "inputs": [
        {
          "internalType": "address",
          "name": "",
          "type": "address"
        }
      ],
      "name": "correlationIds",
      "outputs": [
        {
          "internalType": "uint256",
          "name": "",
          "type": "uint256"
        }
      ],
      "stateMutability": "view",
      "type": "function"
    },
    {
      "inputs": [],
      "name": "fundLimitsOracle",
      "outputs": [
        {
          "internalType": "address",
          "name": "",
          "type": "address"
        }
      ],
      "stateMutability": "view",
      "type": "function"
    },
    {
      "inputs": [
        {
          "internalType": "address",
          "name": "_party",
          "type": "address"
        }
      ],
      "name": "incrementCorrelationId",
      "outputs": [],
      "stateMutability": "nonpayable",
      "type": "function"
    },
    {
      "inputs": [],
      "name": "owner",
      "outputs": [
        {
          "internalType": "address",
          "name": "",
          "type": "address"
        }
      ],
      "stateMutability": "view",
      "type": "function"
    },
    {
      "inputs": [
        {
          "internalType": "uint256",
          "name": "_tokenIdVoucher",
          "type": "uint256"
        }
      ],
      "name": "redeem",
      "outputs": [],
      "stateMutability": "nonpayable",
      "type": "function"
    },
    {
      "inputs": [],
      "name": "renounceOwnership",
      "outputs": [],
      "stateMutability": "nonpayable",
      "type": "function"
    },
    {
      "inputs": [
        {
          "internalType": "uint256[]",
          "name": "metadata",
          "type": "uint256[]"
        }
      ],
      "name": "requestCreateOrderETHETH",
      "outputs": [],
      "stateMutability": "payable",
      "type": "function"
    },
    {
      "inputs": [
        {
          "internalType": "uint256",
          "name": "_tokenIdSupply",
          "type": "uint256"
        },
        {
          "internalType": "address",
          "name": "_issuer",
          "type": "address"
        }
      ],
      "name": "requestVoucherETHETH",
      "outputs": [],
      "stateMutability": "payable",
      "type": "function"
    },
    {
      "inputs": [
        {
          "internalType": "address",
          "name": "newOwner",
          "type": "address"
        }
      ],
      "name": "transferOwnership",
      "outputs": [],
      "stateMutability": "nonpayable",
      "type": "function"
    },
    {
      "inputs": [],
      "name": "voucherKernel",
      "outputs": [
        {
          "internalType": "address",
          "name": "",
          "type": "address"
        }
      ],
      "stateMutability": "view",
      "type": "function"
    }
  ],
  "bytecode": "0x608060405234801561001057600080fd5b50604051610dfc380380610dfc8339818101604052606081101561003357600080fd5b5080516020820151604090920151600160009081559192916100536100fe565b600180546001600160a01b0319166001600160a01b038316908117909155604051919250906000907f8be0079c531659141344cd1fd0a4f28419497f9722a3daafe3b4186f6b6457e0908290a3506100aa83610102565b6100b382610102565b6100bc81610102565b600480546001600160a01b039485166001600160a01b031991821617909155600580549385169382169390931790925560038054919093169116179055610145565b3390565b6001600160a01b038116610142576040805162461bcd60e51b8152602060048201526002602482015261304160f01b604482015290519081900360640190fd5b50565b610ca8806101546000396000f3fe60806040526004361061008c5760003560e01c80634f755c3e1461009157806351b99203146100c25780636ad0cfe1146100d7578063715018a6146101055780637ff97ac11461011a5780638da5cb5b1461014d578063cbe0d73b14610162578063d3fdebbb14610177578063db006a75146101bc578063dea7f423146101e6578063f2fde38b14610254575b600080fd5b34801561009d57600080fd5b506100a6610287565b604080516001600160a01b039092168252519081900360200190f35b3480156100ce57600080fd5b506100a6610296565b610103600480360360408110156100ed57600080fd5b50803590602001356001600160a01b03166102a5565b005b34801561011157600080fd5b506101036104d4565b34801561012657600080fd5b506101036004803603602081101561013d57600080fd5b50356001600160a01b031661056e565b34801561015957600080fd5b506100a661058e565b34801561016e57600080fd5b506100a661059d565b34801561018357600080fd5b506101aa6004803603602081101561019a57600080fd5b50356001600160a01b03166105ac565b60408051918252519081900360200190f35b3480156101c857600080fd5b50610103600480360360208110156101df57600080fd5b50356105be565b610103600480360360208110156101fc57600080fd5b810190602081018135600160201b81111561021657600080fd5b82018360208201111561022857600080fd5b803590602001918460208302840111600160201b8311171561024957600080fd5b50909250905061062a565b34801561026057600080fd5b506101036004803603602081101561027757600080fd5b50356001600160a01b0316610986565b6003546001600160a01b031681565b6005546001600160a01b031681565b600260005414156102fd576040805162461bcd60e51b815260206004820152601f60248201527f5265656e7472616e637947756172643a207265656e7472616e742063616c6c00604482015290519081900360640190fd5b60026000908155600480546040805163d887b4e760e01b81529283018690525134939283926001600160a01b03169163d887b4e791602480820192606092909190829003018186803b15801561035257600080fd5b505afa158015610366573d6000803e3d6000fd5b505050506040513d606081101561037c57600080fd5b5080516040909101519092509050826103958383610a77565b146103cc576040805162461bcd60e51b815260206004820152600260248201526124a360f11b604482015290519081900360640190fd5b600480543360008181526002602052604080822080546001818101909255825163b0df130d60e01b81529687018c90526001600160a01b038b8116602489015260448801959095526064870191909152608486015251919092169263b0df130d9260a480830193919282900301818387803b15801561044a57600080fd5b505af115801561045e573d6000803e3d6000fd5b505060035460408051631994684560e01b815233600482015290516001600160a01b039092169350631994684592503491602480830192600092919082900301818588803b1580156104af57600080fd5b505af11580156104c3573d6000803e3d6000fd5b505060016000555050505050505050565b6104dc610ad8565b6001600160a01b03166104ed61058e565b6001600160a01b031614610536576040805162461bcd60e51b81526020600482018190526024820152600080516020610c33833981519152604482015290519081900360640190fd5b6001546040516000916001600160a01b031690600080516020610c53833981519152908390a3600180546001600160a01b0319169055565b6001600160a01b0316600090815260026020526040902080546001019055565b6001546001600160a01b031690565b6004546001600160a01b031681565b60026020526000908152604090205481565b6004805460408051633def417960e11b8152928301849052336024840152516001600160a01b0390911691637bde82f291604480830192600092919082900301818387803b15801561060f57600080fd5b505af1158015610623573d6000803e3d6000fd5b5050505050565b61066b6106668383600581811061063d57fe5b905060200201358484600281811061065157fe5b90506020020135610adc90919063ffffffff16565b610b35565b6106926106668383600581811061067e57fe5b905060200201358484600381811061065157fe5b6106b9610666838360058181106106a557fe5b905060200201358484600481811061065157fe5b346106ca8383600581811061067e57fe5b14610701576040805162461bcd60e51b815260206004820152600260248201526124a360f11b604482015290519081900360640190fd5b6004546000906001600160a01b031663797f2a26338585858161072057fe5b905060200201358686600181811061073457fe5b905060200201358787600281811061074857fe5b905060200201358888600381811061075c57fe5b905060200201358989600481811061077057fe5b905060200201358a8a600581811061078457fe5b905060200201356040518863ffffffff1660e01b815260040180886001600160a01b03168152602001878152602001868152602001858152602001848152602001838152602001828152602001975050505050505050602060405180830381600087803b1580156107f457600080fd5b505af1158015610808573d6000803e3d6000fd5b505050506040513d602081101561081e57600080fd5b505160048054604080516319eb920160e31b8152928301849052600160248401526000604484018190526064840181905290519394506001600160a01b039091169263cf5c900892608480820193929182900301818387803b15801561088357600080fd5b505af1158015610897573d6000803e3d6000fd5b505060035460408051631994684560e01b815233600482015290516001600160a01b039092169350631994684592503491602480830192600092919082900301818588803b1580156108e857600080fd5b505af11580156108fc573d6000803e3d6000fd5b5050505050807f306fc6597e2ee1311ae9c98a7cb35eefa1fb5eccecc259e85185cb2aaf157146338585600581811061093157fe5b336000908152600260209081526040918290208054600181810190925583516001600160a01b0398909816885293820295909501359086015284810193909352606084015250519081900360800190a2505050565b61098e610ad8565b6001600160a01b031661099f61058e565b6001600160a01b0316146109e8576040805162461bcd60e51b81526020600482018190526024820152600080516020610c33833981519152604482015290519081900360640190fd5b6001600160a01b038116610a2d5760405162461bcd60e51b8152600401808060200182810382526026815260200180610bec6026913960400191505060405180910390fd5b6001546040516001600160a01b03808416921690600080516020610c5383398151915290600090a3600180546001600160a01b0319166001600160a01b0392909216919091179055565b600082820183811015610acf576040805162461bcd60e51b815260206004820152601b60248201527a536166654d6174683a206164646974696f6e206f766572666c6f7760281b604482015290519081900360640190fd5b90505b92915050565b3390565b600082610aeb57506000610ad2565b82820282848281610af857fe5b0414610acf5760405162461bcd60e51b8152600401808060200182810382526021815260200180610c126021913960400191505060405180910390fd5b600560009054906101000a90046001600160a01b03166001600160a01b0316630f878aed6040518163ffffffff1660e01b815260040160206040518083038186803b158015610b8357600080fd5b505afa158015610b97573d6000803e3d6000fd5b505050506040513d6020811015610bad57600080fd5b5051811115610be8576040805162461bcd60e51b8152602060048201526002602482015261105360f21b604482015290519081900360640190fd5b5056fe4f776e61626c653a206e6577206f776e657220697320746865207a65726f2061646472657373536166654d6174683a206d756c7469706c69636174696f6e206f766572666c6f774f776e61626c653a2063616c6c6572206973206e6f7420746865206f776e65728be0079c531659141344cd1fd0a4f28419497f9722a3daafe3b4186f6b6457e0a26469706673582212201ce4258fb07976e89ad1788927405722d92944b747a1fa0caff8a95e9f8f564b64736f6c63430007010033",
  "linkReferences": {},
  "deployedLinkReferences": {}
}