{
  "_format": "hh-sol-artifact-1",
  "contractName": "ERC1155ERC721",
  "sourceName": "contracts/ERC1155ERC721.sol",
  "abi": [
    {
      "inputs": [],
      "stateMutability": "nonpayable",
      "type": "constructor"
    },
    {
      "anonymous": false,
      "inputs": [
        {
          "indexed": true,
          "internalType": "address",
          "name": "_owner",
          "type": "address"
        },
        {
          "indexed": true,
          "internalType": "address",
          "name": "_approved",
          "type": "address"
        },
        {
          "indexed": true,
          "internalType": "uint256",
          "name": "_tokenId",
          "type": "uint256"
        }
      ],
      "name": "Approval",
      "type": "event"
    },
    {
      "anonymous": false,
      "inputs": [
        {
          "indexed": true,
          "internalType": "address",
          "name": "_owner",
          "type": "address"
        },
        {
          "indexed": true,
          "internalType": "address",
          "name": "_operator",
          "type": "address"
        },
        {
          "indexed": false,
          "internalType": "bool",
          "name": "_approved",
          "type": "bool"
        }
      ],
      "name": "ApprovalForAll",
      "type": "event"
    },
    {
      "anonymous": false,
      "inputs": [
        {
          "indexed": false,
          "internalType": "address",
          "name": "_newCashier",
          "type": "address"
        },
        {
          "indexed": false,
          "internalType": "address",
          "name": "_triggeredBy",
          "type": "address"
        }
      ],
      "name": "LogCashierSet",
      "type": "event"
    },
    {
      "anonymous": false,
      "inputs": [
        {
          "indexed": false,
          "internalType": "address",
          "name": "_newLocalOracle",
          "type": "address"
        },
        {
          "indexed": false,
          "internalType": "address",
          "name": "_triggeredBy",
          "type": "address"
        }
      ],
      "name": "LogLocalOracleSet",
      "type": "event"
    },
    {
      "anonymous": false,
      "inputs": [
        {
          "indexed": false,
          "internalType": "address",
          "name": "_newVoucherKernel",
          "type": "address"
        },
        {
          "indexed": false,
          "internalType": "address",
          "name": "_triggeredBy",
          "type": "address"
        }
      ],
      "name": "LogVoucherKernelSet",
      "type": "event"
    },
    {
      "anonymous": false,
      "inputs": [
        {
          "indexed": true,
          "internalType": "address",
          "name": "_from",
          "type": "address"
        },
        {
          "indexed": true,
          "internalType": "address",
          "name": "_to",
          "type": "address"
        },
        {
          "indexed": true,
          "internalType": "uint256",
          "name": "_tokenId",
          "type": "uint256"
        }
      ],
      "name": "Transfer",
      "type": "event"
    },
    {
      "anonymous": false,
      "inputs": [
        {
          "indexed": true,
          "internalType": "address",
          "name": "_operator",
          "type": "address"
        },
        {
          "indexed": true,
          "internalType": "address",
          "name": "_from",
          "type": "address"
        },
        {
          "indexed": true,
          "internalType": "address",
          "name": "_to",
          "type": "address"
        },
        {
          "indexed": false,
          "internalType": "uint256[]",
          "name": "_ids",
          "type": "uint256[]"
        },
        {
          "indexed": false,
          "internalType": "uint256[]",
          "name": "_values",
          "type": "uint256[]"
        }
      ],
      "name": "TransferBatch",
      "type": "event"
    },
    {
      "anonymous": false,
      "inputs": [
        {
          "indexed": true,
          "internalType": "address",
          "name": "_operator",
          "type": "address"
        },
        {
          "indexed": true,
          "internalType": "address",
          "name": "_from",
          "type": "address"
        },
        {
          "indexed": true,
          "internalType": "address",
          "name": "_to",
          "type": "address"
        },
        {
          "indexed": false,
          "internalType": "uint256",
          "name": "_id",
          "type": "uint256"
        },
        {
          "indexed": false,
          "internalType": "uint256",
          "name": "_value",
          "type": "uint256"
        }
      ],
      "name": "TransferSingle",
      "type": "event"
    },
    {
      "anonymous": false,
      "inputs": [
        {
          "indexed": false,
          "internalType": "string",
          "name": "_value",
          "type": "string"
        },
        {
          "indexed": true,
          "internalType": "uint256",
          "name": "_id",
          "type": "uint256"
        }
      ],
      "name": "URI",
      "type": "event"
    },
    {
      "inputs": [
        {
          "internalType": "string",
          "name": "_newRoute",
          "type": "string"
        }
      ],
      "name": "_set1155Route",
      "outputs": [],
      "stateMutability": "nonpayable",
      "type": "function"
    },
    {
      "inputs": [
        {
          "internalType": "string",
          "name": "_newRoute",
          "type": "string"
        }
      ],
      "name": "_set721Route",
      "outputs": [],
      "stateMutability": "nonpayable",
      "type": "function"
    },
    {
      "inputs": [
        {
          "internalType": "string",
          "name": "_newBase",
          "type": "string"
        }
      ],
      "name": "_setMetadataBase",
      "outputs": [],
      "stateMutability": "nonpayable",
      "type": "function"
    },
    {
      "inputs": [
        {
          "internalType": "address",
          "name": "_to",
          "type": "address"
        },
        {
          "internalType": "uint256",
          "name": "_tokenId",
          "type": "uint256"
        }
      ],
      "name": "approve",
      "outputs": [],
      "stateMutability": "nonpayable",
      "type": "function"
    },
    {
      "inputs": [
        {
          "internalType": "address",
          "name": "_account",
          "type": "address"
        },
        {
          "internalType": "uint256",
          "name": "_tokenId",
          "type": "uint256"
        }
      ],
      "name": "balanceOf",
      "outputs": [
        {
          "internalType": "uint256",
          "name": "",
          "type": "uint256"
        }
      ],
      "stateMutability": "view",
      "type": "function"
    },
    {
      "inputs": [
        {
          "internalType": "address",
          "name": "_owner",
          "type": "address"
        }
      ],
      "name": "balanceOf",
      "outputs": [
        {
          "internalType": "uint256",
          "name": "",
          "type": "uint256"
        }
      ],
      "stateMutability": "view",
      "type": "function"
    },
    {
      "inputs": [
        {
          "internalType": "address[]",
          "name": "_accounts",
          "type": "address[]"
        },
        {
          "internalType": "uint256[]",
          "name": "_tokenIds",
          "type": "uint256[]"
        }
      ],
      "name": "balanceOfBatch",
      "outputs": [
        {
          "internalType": "uint256[]",
          "name": "",
          "type": "uint256[]"
        }
      ],
      "stateMutability": "view",
      "type": "function"
    },
    {
      "inputs": [
        {
          "internalType": "uint256",
          "name": "",
          "type": "uint256"
        },
        {
          "internalType": "address",
          "name": "",
          "type": "address"
        }
      ],
      "name": "balances",
      "outputs": [
        {
          "internalType": "uint256",
          "name": "",
          "type": "uint256"
        }
      ],
      "stateMutability": "view",
      "type": "function"
    },
    {
      "inputs": [
        {
          "internalType": "address",
          "name": "_account",
          "type": "address"
        },
        {
          "internalType": "uint256",
          "name": "_tokenId",
          "type": "uint256"
        },
        {
          "internalType": "uint256",
          "name": "_value",
          "type": "uint256"
        }
      ],
      "name": "burn",
      "outputs": [],
      "stateMutability": "nonpayable",
      "type": "function"
    },
    {
      "inputs": [
        {
          "internalType": "address",
          "name": "_account",
          "type": "address"
        },
        {
          "internalType": "uint256[]",
          "name": "_tokenIds",
          "type": "uint256[]"
        },
        {
          "internalType": "uint256[]",
          "name": "_values",
          "type": "uint256[]"
        }
      ],
      "name": "burnBatch",
      "outputs": [],
      "stateMutability": "nonpayable",
      "type": "function"
    },
    {
      "inputs": [],
      "name": "cashierAddress",
      "outputs": [
        {
          "internalType": "address",
          "name": "",
          "type": "address"
        }
      ],
      "stateMutability": "view",
      "type": "function"
    },
    {
      "inputs": [
        {
          "internalType": "uint256",
          "name": "_tokenId",
          "type": "uint256"
        }
      ],
      "name": "getApproved",
      "outputs": [
        {
          "internalType": "address",
          "name": "",
          "type": "address"
        }
      ],
      "stateMutability": "view",
      "type": "function"
    },
    {
      "inputs": [
        {
          "internalType": "address",
          "name": "_account",
          "type": "address"
        },
        {
          "internalType": "address",
          "name": "_operator",
          "type": "address"
        }
      ],
      "name": "isApprovedForAll",
      "outputs": [
        {
          "internalType": "bool",
          "name": "",
          "type": "bool"
        }
      ],
      "stateMutability": "view",
      "type": "function"
    },
    {
      "inputs": [],
      "name": "localOracleAddress",
      "outputs": [
        {
          "internalType": "address",
          "name": "",
          "type": "address"
        }
      ],
      "stateMutability": "view",
      "type": "function"
    },
    {
      "inputs": [
        {
          "internalType": "address",
          "name": "to",
          "type": "address"
        },
        {
          "internalType": "uint256",
          "name": "tokenId",
          "type": "uint256"
        }
      ],
      "name": "mint",
      "outputs": [
        {
          "internalType": "bool",
          "name": "",
          "type": "bool"
        }
      ],
      "stateMutability": "nonpayable",
      "type": "function"
    },
    {
      "inputs": [
        {
          "internalType": "address",
          "name": "_to",
          "type": "address"
        },
        {
          "internalType": "uint256",
          "name": "_tokenId",
          "type": "uint256"
        },
        {
          "internalType": "uint256",
          "name": "_value",
          "type": "uint256"
        },
        {
          "internalType": "bytes",
          "name": "_data",
          "type": "bytes"
        }
      ],
      "name": "mint",
      "outputs": [],
      "stateMutability": "nonpayable",
      "type": "function"
    },
    {
      "inputs": [
        {
          "internalType": "address",
          "name": "_to",
          "type": "address"
        },
        {
          "internalType": "uint256[]",
          "name": "_tokenIds",
          "type": "uint256[]"
        },
        {
          "internalType": "uint256[]",
          "name": "_values",
          "type": "uint256[]"
        },
        {
          "internalType": "bytes",
          "name": "_data",
          "type": "bytes"
        }
      ],
      "name": "mintBatch",
      "outputs": [],
      "stateMutability": "nonpayable",
      "type": "function"
    },
    {
      "inputs": [],
      "name": "name",
      "outputs": [
        {
          "internalType": "string",
          "name": "_name",
          "type": "string"
        }
      ],
      "stateMutability": "pure",
      "type": "function"
    },
    {
      "inputs": [],
      "name": "owner",
      "outputs": [
        {
          "internalType": "address",
          "name": "",
          "type": "address"
        }
      ],
      "stateMutability": "view",
      "type": "function"
    },
    {
      "inputs": [
        {
          "internalType": "uint256",
          "name": "_tokenId",
          "type": "uint256"
        }
      ],
      "name": "ownerOf",
      "outputs": [
        {
          "internalType": "address",
          "name": "",
          "type": "address"
        }
      ],
      "stateMutability": "view",
      "type": "function"
    },
    {
      "inputs": [
        {
          "internalType": "address",
          "name": "_from",
          "type": "address"
        },
        {
          "internalType": "address",
          "name": "_to",
          "type": "address"
        },
        {
          "internalType": "uint256[]",
          "name": "_tokenIds",
          "type": "uint256[]"
        },
        {
          "internalType": "uint256[]",
          "name": "_values",
          "type": "uint256[]"
        },
        {
          "internalType": "bytes",
          "name": "_data",
          "type": "bytes"
        }
      ],
      "name": "safeBatchTransferFrom",
      "outputs": [],
      "stateMutability": "nonpayable",
      "type": "function"
    },
    {
      "inputs": [
        {
          "internalType": "address",
          "name": "_from",
          "type": "address"
        },
        {
          "internalType": "address",
          "name": "_to",
          "type": "address"
        },
        {
          "internalType": "uint256",
          "name": "_tokenId",
          "type": "uint256"
        }
      ],
      "name": "safeTransferFrom",
      "outputs": [],
      "stateMutability": "nonpayable",
      "type": "function"
    },
    {
      "inputs": [
        {
          "internalType": "address",
          "name": "_from",
          "type": "address"
        },
        {
          "internalType": "address",
          "name": "_to",
          "type": "address"
        },
        {
          "internalType": "uint256",
          "name": "_tokenId",
          "type": "uint256"
        },
        {
          "internalType": "bytes",
          "name": "_data",
          "type": "bytes"
        }
      ],
      "name": "safeTransferFrom",
      "outputs": [],
      "stateMutability": "nonpayable",
      "type": "function"
    },
    {
      "inputs": [
        {
          "internalType": "address",
          "name": "_from",
          "type": "address"
        },
        {
          "internalType": "address",
          "name": "_to",
          "type": "address"
        },
        {
          "internalType": "uint256",
          "name": "_tokenId",
          "type": "uint256"
        },
        {
          "internalType": "uint256",
          "name": "_value",
          "type": "uint256"
        },
        {
          "internalType": "bytes",
          "name": "_data",
          "type": "bytes"
        }
      ],
      "name": "safeTransferFrom",
      "outputs": [],
      "stateMutability": "nonpayable",
      "type": "function"
    },
    {
      "inputs": [
        {
          "internalType": "address",
          "name": "_operator",
          "type": "address"
        },
        {
          "internalType": "bool",
          "name": "_approve",
          "type": "bool"
        }
      ],
      "name": "setApprovalForAll",
      "outputs": [],
      "stateMutability": "nonpayable",
      "type": "function"
    },
    {
      "inputs": [
        {
          "internalType": "address",
          "name": "_cashierAddress",
          "type": "address"
        }
      ],
      "name": "setCashierAddress",
      "outputs": [],
      "stateMutability": "nonpayable",
      "type": "function"
    },
    {
      "inputs": [
        {
          "internalType": "address",
          "name": "_localOracleAddress",
          "type": "address"
        }
      ],
      "name": "setLocalOracleAddress",
      "outputs": [],
      "stateMutability": "nonpayable",
      "type": "function"
    },
    {
      "inputs": [
        {
          "internalType": "address",
          "name": "_voucherKernelAddress",
          "type": "address"
        }
      ],
      "name": "setVoucherKernelAddress",
      "outputs": [],
      "stateMutability": "nonpayable",
      "type": "function"
    },
    {
      "inputs": [
        {
          "internalType": "bytes4",
          "name": "_interfaceId",
          "type": "bytes4"
        }
      ],
      "name": "supportsInterface",
      "outputs": [
        {
          "internalType": "bool",
          "name": "",
          "type": "bool"
        }
      ],
      "stateMutability": "pure",
      "type": "function"
    },
    {
      "inputs": [],
      "name": "symbol",
      "outputs": [
        {
          "internalType": "string",
          "name": "_symbol",
          "type": "string"
        }
      ],
      "stateMutability": "pure",
      "type": "function"
    },
    {
      "inputs": [
        {
          "internalType": "address",
          "name": "_account",
          "type": "address"
        },
        {
          "internalType": "uint256",
          "name": "_tokenId",
          "type": "uint256"
        },
        {
          "internalType": "uint256",
          "name": "_value",
          "type": "uint256"
        }
      ],
      "name": "tburn",
      "outputs": [],
      "stateMutability": "nonpayable",
      "type": "function"
    },
    {
      "inputs": [
        {
          "internalType": "address",
          "name": "_to",
          "type": "address"
        },
        {
          "internalType": "uint256",
          "name": "_tokenId",
          "type": "uint256"
        },
        {
          "internalType": "uint256",
          "name": "_value",
          "type": "uint256"
        },
        {
          "internalType": "bytes",
          "name": "_data",
          "type": "bytes"
        }
      ],
      "name": "tmint",
      "outputs": [],
      "stateMutability": "nonpayable",
      "type": "function"
    },
    {
      "inputs": [
        {
          "internalType": "uint256",
          "name": "_tokenId",
          "type": "uint256"
        }
      ],
      "name": "tokenURI",
      "outputs": [
        {
          "internalType": "string",
          "name": "",
          "type": "string"
        }
      ],
      "stateMutability": "view",
      "type": "function"
    },
    {
      "inputs": [
        {
          "internalType": "address",
          "name": "_from",
          "type": "address"
        },
        {
          "internalType": "address",
          "name": "_to",
          "type": "address"
        },
        {
          "internalType": "uint256",
          "name": "_tokenId",
          "type": "uint256"
        }
      ],
      "name": "transferFrom",
      "outputs": [],
      "stateMutability": "nonpayable",
      "type": "function"
    },
    {
      "inputs": [
        {
          "internalType": "uint256",
          "name": "_tokenId",
          "type": "uint256"
        }
      ],
      "name": "uri",
      "outputs": [
        {
          "internalType": "string",
          "name": "",
          "type": "string"
        }
      ],
      "stateMutability": "view",
      "type": "function"
    },
    {
      "inputs": [],
      "name": "voucherKernelAddress",
      "outputs": [
        {
          "internalType": "address",
          "name": "",
          "type": "address"
        }
      ],
      "stateMutability": "view",
      "type": "function"
    }
  ],
  "bytecode": "0x608060405234801561001057600080fd5b50600080546001600160a01b031916331790556137de806100326000396000f3fe608060405234801561001057600080fd5b50600436106101ab5760003560e01c8062fdd58e146101b057806301ffc9a7146101ee57806306fdde0314610229578063081812fc146102a6578063095ea7b3146102df5780630e89341c1461030d5780631f3203311461032a5780631f7fdffa1461035657806323b872dd1461050e5780632eb2c2d61461054457806332d1d3c11461066b57806335649a831461072b57806338b6db2e1461073357806340c10f19146107d757806342842e0e146108035780634e1273f4146108395780634f755c3e146109475780636352211e1461094f5780636b20c4541461096c57806370a0823114610a9f578063731133e914610ac55780637d64afde14610b855780638da5cb5b14610c2957806395d89b4114610c315780639dbfdc4a14610c39578063a22cb46514610c5f578063b801fcd014610c8d578063b88d4fde14610c95578063bb49944014610d59578063c099a7c414610dfd578063c87b56dd14610e23578063d95be43a14610e40578063e8fde40f14610e66578063e985e9c514610e98578063f242432a14610ec6578063f5298aca14610f59575b600080fd5b6101dc600480360360408110156101c657600080fd5b506001600160a01b038135169060200135610f8b565b60408051918252519081900360200190f35b6102156004803603602081101561020457600080fd5b50356001600160e01b031916610fb2565b604080519115158252519081900360200190f35b61023161103c565b6040805160208082528351818301528351919283929083019185019080838360005b8381101561026b578181015183820152602001610253565b50505050905090810190601f1680156102985780820380516001836020036101000a031916815260200191505b509250505060405180910390f35b6102c3600480360360208110156102bc57600080fd5b5035611069565b604080516001600160a01b039092168252519081900360200190f35b61030b600480360360408110156102f557600080fd5b506001600160a01b0381351690602001356110d8565b005b6102316004803603602081101561032357600080fd5b5035611215565b6101dc6004803603604081101561034057600080fd5b50803590602001356001600160a01b0316611344565b61030b6004803603608081101561036c57600080fd5b6001600160a01b038235169190810190604081016020820135600160201b81111561039657600080fd5b8201836020820111156103a857600080fd5b803590602001918460208302840111600160201b831117156103c957600080fd5b9190808060200260200160405190810160405280939291908181526020018383602002808284376000920191909152509295949360208101935035915050600160201b81111561041857600080fd5b82018360208201111561042a57600080fd5b803590602001918460208302840111600160201b8311171561044b57600080fd5b9190808060200260200160405190810160405280939291908181526020018383602002808284376000920191909152509295949360208101935035915050600160201b81111561049a57600080fd5b8201836020820111156104ac57600080fd5b803590602001918460018302840111600160201b831117156104cd57600080fd5b91908080601f016020809104026020016040519081016040528093929190818152602001838380828437600092019190915250929550611361945050505050565b61030b6004803603606081101561052457600080fd5b506001600160a01b0381358116916020810135909116906040013561140f565b61030b600480360360a081101561055a57600080fd5b6001600160a01b038235811692602081013590911691810190606081016040820135600160201b81111561058d57600080fd5b82018360208201111561059f57600080fd5b803590602001918460208302840111600160201b831117156105c057600080fd5b919390929091602081019035600160201b8111156105dd57600080fd5b8201836020820111156105ef57600080fd5b803590602001918460208302840111600160201b8311171561061057600080fd5b919390929091602081019035600160201b81111561062d57600080fd5b82018360208201111561063f57600080fd5b803590602001918460018302840111600160201b8311171561066057600080fd5b50909250905061149e565b61030b6004803603608081101561068157600080fd5b6001600160a01b038235169160208101359160408201359190810190608081016060820135600160201b8111156106b757600080fd5b8201836020820111156106c957600080fd5b803590602001918460018302840111600160201b831117156106ea57600080fd5b91908080601f016020809104026020016040519081016040528093929190818152602001838380828437600092019190915250929550611935945050505050565b6102c3611941565b61030b6004803603602081101561074957600080fd5b810190602081018135600160201b81111561076357600080fd5b82018360208201111561077557600080fd5b803590602001918460018302840111600160201b8311171561079657600080fd5b91908080601f016020809104026020016040519081016040528093929190818152602001838380828437600092019190915250929550611950945050505050565b610215600480360360408110156107ed57600080fd5b506001600160a01b0381351690602001356119b7565b61030b6004803603606081101561081957600080fd5b506001600160a01b03813581169160208101359091169060400135611a69565b6108f76004803603604081101561084f57600080fd5b810190602081018135600160201b81111561086957600080fd5b82018360208201111561087b57600080fd5b803590602001918460208302840111600160201b8311171561089c57600080fd5b919390929091602081019035600160201b8111156108b957600080fd5b8201836020820111156108cb57600080fd5b803590602001918460208302840111600160201b831117156108ec57600080fd5b509092509050611a84565b60408051602080825283518183015283519192839290830191858101910280838360005b8381101561093357818101518382015260200161091b565b505050509050019250505060405180910390f35b6102c3611ba5565b6102c36004803603602081101561096557600080fd5b5035611bb4565b61030b6004803603606081101561098257600080fd5b6001600160a01b038235169190810190604081016020820135600160201b8111156109ac57600080fd5b8201836020820111156109be57600080fd5b803590602001918460208302840111600160201b831117156109df57600080fd5b9190808060200260200160405190810160405280939291908181526020018383602002808284376000920191909152509295949360208101935035915050600160201b811115610a2e57600080fd5b820183602082011115610a4057600080fd5b803590602001918460208302840111600160201b83111715610a6157600080fd5b919080806020026020016040519081016040528093929190818152602001838360200280828437600092019190915250929550611c2e945050505050565b6101dc60048036036020811015610ab557600080fd5b50356001600160a01b0316611cd5565b61030b60048036036080811015610adb57600080fd5b6001600160a01b038235169160208101359160408201359190810190608081016060820135600160201b811115610b1157600080fd5b820183602082011115610b2357600080fd5b803590602001918460018302840111600160201b83111715610b4457600080fd5b91908080601f016020809104026020016040519081016040528093929190818152602001838380828437600092019190915250929550611d3c945050505050565b61030b60048036036020811015610b9b57600080fd5b810190602081018135600160201b811115610bb557600080fd5b820183602082011115610bc757600080fd5b803590602001918460018302840111600160201b83111715610be857600080fd5b91908080601f016020809104026020016040519081016040528093929190818152602001838380828437600092019190915250929550611dcd945050505050565b6102c3611e30565b610231611e3f565b61030b60048036036020811015610c4f57600080fd5b50356001600160a01b0316611e5c565b61030b60048036036040811015610c7557600080fd5b506001600160a01b0381351690602001351515611f52565b6102c361200f565b61030b60048036036080811015610cab57600080fd5b6001600160a01b03823581169260208101359091169160408201359190810190608081016060820135600160201b811115610ce557600080fd5b820183602082011115610cf757600080fd5b803590602001918460018302840111600160201b83111715610d1857600080fd5b91908080601f01602080910402602001604051908101604052809392919081815260200183838082843760009201919091525092955061201e945050505050565b61030b60048036036020811015610d6f57600080fd5b810190602081018135600160201b811115610d8957600080fd5b820183602082011115610d9b57600080fd5b803590602001918460018302840111600160201b83111715610dbc57600080fd5b91908080601f016020809104026020016040519081016040528093929190818152602001838380828437600092019190915250929550612192945050505050565b61030b60048036036020811015610e1357600080fd5b50356001600160a01b03166121f5565b61023160048036036020811015610e3957600080fd5b50356122eb565b61030b60048036036020811015610e5657600080fd5b50356001600160a01b0316612351565b61030b60048036036060811015610e7c57600080fd5b506001600160a01b038135169060208101359060400135612447565b61021560048036036040811015610eae57600080fd5b506001600160a01b0381358116916020013516612452565b61030b600480360360a0811015610edc57600080fd5b6001600160a01b03823581169260208101359091169160408201359160608101359181019060a081016080820135600160201b811115610f1b57600080fd5b820183602082011115610f2d57600080fd5b803590602001918460018302840111600160201b83111715610f4e57600080fd5b509092509050612480565b61030b60048036036060811015610f6f57600080fd5b506001600160a01b038135169060208101359060400135612727565b60009081526004602090815260408083206001600160a01b03949094168352929052205490565b60006301ffc9a760e01b6001600160e01b031983161480610fe35750636cdb3d1360e11b6001600160e01b03198316145b80610ffe57506380ac58cd60e01b6001600160e01b03198316145b806110195750635b5e139f60e01b6001600160e01b03198316145b8061103457506303a24d0760e21b6001600160e01b03198316145b90505b919050565b6040805180820190915260138152722137b9b7b71029b6b0b93a102b37bab1b432b960691b602082015290565b6000818152600760205260408120546001600160a01b03166110bc5760405162461bcd60e51b815260040180806020018281038252602c81526020018061373d602c913960400191505060405180910390fd5b506000908152600860205260409020546001600160a01b031690565b60006110e382611bb4565b9050806001600160a01b0316836001600160a01b0316141561113d576040805162461bcd60e51b815260206004820152600e60248201526d14915115539110539517d0d0531360921b604482015290519081900360640190fd5b336001600160a01b038216148061117757506001600160a01b038116600090815260096020908152604080832033845290915290205460ff165b6111b9576040805162461bcd60e51b815260206004820152600e60248201526d554e415554484f52495a45445f4160901b604482015290519081900360640190fd5b60008281526008602052604080822080546001600160a01b0319166001600160a01b0387811691821790925591518593918516917f8c5be1e5ebec7d5bd14f71427d1e84f3dd0314c0f7b2291e5b200ac8c7c3b92591a4505050565b6060600a600b611224846127b8565b60405160200180848054600181600116156101000203166002900480156112825780601f10611260576101008083540402835291820191611282565b820191906000526020600020905b81548152906001019060200180831161126e575b5050838054600181600116156101000203166002900480156112db5780601f106112b95761010080835404028352918201916112db565b820191906000526020600020905b8154815290600101906020018083116112c7575b5050825160208401908083835b602083106113075780518252601f1990920191602091820191016112e8565b6001836020036101000a03801982511681845116808217855250505050505090500193505050506040516020818303038152906040529050919050565b600460209081526000928352604080842090915290825290205481565b6001546001600160a01b03166113ac576040805162461bcd60e51b8152602060048201526019602482015260008051602061371d833981519152604482015290519081900360640190fd5b6001546001600160a01b031633146113fd576040805162461bcd60e51b815260206004820152600f60248201526e554e415554484f52495a45445f564b60881b604482015290519081900360640190fd5b6114098484848461288f565b50505050565b6000818152600860205260409020546001600160a01b031633148061144457503361143982611bb4565b6001600160a01b0316145b61148e576040805162461bcd60e51b81526020600482015260166024820152751393d517d3d5d3915497d393d497d054141493d5915160521b604482015290519081900360640190fd5b611499838383612ab8565b505050565b6001600160a01b0387166114e7576040805162461bcd60e51b815260206004820152601360248201526000805160206136fd833981519152604482015290519081900360640190fd5b848314611529576040805162461bcd60e51b81526020600482015260186024820152600080516020613769833981519152604482015290519081900360640190fd5b6001600160a01b03881633148061156857506001600160a01b038816600090815260096020908152604080832033845290915290205460ff1615156001145b6115ab576040805162461bcd60e51b815260206004820152600f60248201526e2aa720aaaa2427a924ad22a22fa9a160891b604482015290519081900360640190fd5b60005b858110156117e75760008787838181106115c457fe5b90506020020135905060008686848181106115db57fe5b905060200201359050806004600084815260200190815260200160002060008d6001600160a01b03166001600160a01b031681526020019081526020016000205414611653576040805162461bcd60e51b8152602060048201526002602482015261495160f01b604482015290519081900360640190fd5b60008281526004602090815260408083206001600160a01b038f1684529091529020546116809082612d19565b6004600084815260200190815260200160002060008d6001600160a01b03166001600160a01b03168152602001908152602001600020819055506117036004600084815260200190815260200160002060008c6001600160a01b03166001600160a01b031681526020019081526020016000205482612d7690919063ffffffff16565b6004600084815260200190815260200160002060008c6001600160a01b03166001600160a01b0316815260200190815260200160002081905550600260009054906101000a90046001600160a01b03166001600160a01b0316635711fd778c8c85856040518563ffffffff1660e01b815260040180856001600160a01b03168152602001846001600160a01b03168152602001838152602001828152602001945050505050600060405180830381600087803b1580156117c257600080fd5b505af11580156117d6573d6000803e3d6000fd5b5050505050508060010190506115ae565b50866001600160a01b0316886001600160a01b0316336001600160a01b03166000805160206136bd833981519152898989896040518080602001806020018381038352878782818152602001925060200280828437600083820152601f01601f19169091018481038352858152602090810191508690860280828437600083820152604051601f909101601f19169092018290039850909650505050505050a461192b33898989898080602002602001604051908101604052809392919081815260200183836020028082843760009201919091525050604080516020808d0282810182019093528c82529093508c92508b91829185019084908082843760009201919091525050604080516020601f8c018190048102820181019092528a815292508a9150899081908401838280828437600092019190915250612dd592505050565b5050505050505050565b61140984848484612fcc565b6001546001600160a01b031681565b6000546001600160a01b031633146119a0576040805162461bcd60e51b815260206004820152600e60248201526d554e415554484f52495a45445f4f60901b604482015290519081900360640190fd5b80516119b390600a906020840190613629565b5050565b6001546000906001600160a01b0316611a05576040805162461bcd60e51b8152602060048201526019602482015260008051602061371d833981519152604482015290519081900360640190fd5b6001546001600160a01b03163314611a56576040805162461bcd60e51b815260206004820152600f60248201526e554e415554484f52495a45445f564b60881b604482015290519081900360640190fd5b611a6083836130b9565b50600192915050565b6114998383836040518060200160405280600081525061201e565b6060838214611ac8576040805162461bcd60e51b81526020600482015260186024820152600080516020613769833981519152604482015290519081900360640190fd5b6060846001600160401b0381118015611ae057600080fd5b50604051908082528060200260200182016040528015611b0a578160200160208202803683370190505b50905060005b85811015611b9b5760046000868684818110611b2857fe5b9050602002013581526020019081526020016000206000888884818110611b4b57fe5b905060200201356001600160a01b03166001600160a01b03166001600160a01b0316815260200190815260200160002054828281518110611b8857fe5b6020908102919091010152600101611b10565b5095945050505050565b6002546001600160a01b031681565b6000818152600560205260408120546001600160a01b03168061103457506000828152600760205260409020546001600160a01b031680611034576040805162461bcd60e51b815260206004820152600f60248201526e2aa72222a324a722a22fa7aba722a960891b604482015290519081900360640190fd5b6001546001600160a01b0316611c79576040805162461bcd60e51b8152602060048201526019602482015260008051602061371d833981519152604482015290519081900360640190fd5b6001546001600160a01b03163314611cca576040805162461bcd60e51b815260206004820152600f60248201526e554e415554484f52495a45445f564b60881b604482015290519081900360640190fd5b6114998383836131c5565b60006001600160a01b038216611d20576040805162461bcd60e51b815260206004820152601360248201526000805160206136fd833981519152604482015290519081900360640190fd5b506001600160a01b031660009081526006602052604090205490565b6001546001600160a01b031633148015611d6057506001546001600160a01b031615155b80611d8a57506003546001600160a01b031633148015611d8a57506003546001600160a01b031615155b611935576040805162461bcd60e51b815260206004820152600f60248201526e554e415554484f52495a45445f564b60881b604482015290519081900360640190fd5b6000546001600160a01b03163314611e1d576040805162461bcd60e51b815260206004820152600e60248201526d554e415554484f52495a45445f4f60901b604482015290519081900360640190fd5b80516119b390600c906020840190613629565b6000546001600160a01b031681565b6040805180820190915260038152622129ab60e91b602082015290565b6000546001600160a01b03163314611eac576040805162461bcd60e51b815260206004820152600e60248201526d554e415554484f52495a45445f4f60901b604482015290519081900360640190fd5b806001600160a01b038116611ef7576040805162461bcd60e51b815260206004820152600c60248201526b5a45524f5f4144445245535360a01b604482015290519081900360640190fd5b600380546001600160a01b0319166001600160a01b0384169081179091556040805191825233602083015280517f7fce924f16a1f1f5f01a3fc6ae1199f5ad92b5b1b756dba1fe07bdd05935f9869281900390910190a15050565b336001600160a01b0383161415611fa1576040805162461bcd60e51b815260206004820152600e60248201526d14915115539110539517d0d0531360921b604482015290519081900360640190fd5b3360008181526009602090815260408083206001600160a01b03871680855290835292819020805460ff1916861515908117909155815190815290519293927f17307eab39ab6107e8899845ad3d59bd9653f200f220920489ca2b5937696c31929181900390910190a35050565b6003546001600160a01b031681565b61202984848461140f565b61203b836001600160a01b03166133e4565b1561140957604051630a85bd0160e11b8082526001600160a01b038681166004840190815290861660248401819052604484018690526080606485019081528551608486015285519394919363150b7a02938a938a938a938a939260a40190602085019080838360005b838110156120bd5781810151838201526020016120a5565b50505050905090810190601f1680156120ea5780820380516001836020036101000a031916815260200191505b5095505050505050602060405180830381600087803b15801561210c57600080fd5b505af1158015612120573d6000803e3d6000fd5b505050506040513d602081101561213657600080fd5b50516001600160e01b03191614611409576040805162461bcd60e51b815260206004820152601b60248201527a155394d5541413d495115117d15490cdcc8c57d49150d152559151602a1b604482015290519081900360640190fd5b6000546001600160a01b031633146121e2576040805162461bcd60e51b815260206004820152600e60248201526d554e415554484f52495a45445f4f60901b604482015290519081900360640190fd5b80516119b390600b906020840190613629565b6000546001600160a01b03163314612245576040805162461bcd60e51b815260206004820152600e60248201526d554e415554484f52495a45445f4f60901b604482015290519081900360640190fd5b806001600160a01b038116612290576040805162461bcd60e51b815260206004820152600c60248201526b5a45524f5f4144445245535360a01b604482015290519081900360640190fd5b600280546001600160a01b0319166001600160a01b0384169081179091556040805191825233602083015280517fcd124a0a6c3182c7bb77b8052823a4bf7d0a4c90016ffc4d53b969f98d3f8b889281900390910190a15050565b6000818152600760205260409020546060906001600160a01b0316612344576040805162461bcd60e51b815260206004820152600a6024820152691253959053125117d25160b21b604482015290519081900360640190fd5b600a600c611224846127b8565b6000546001600160a01b031633146123a1576040805162461bcd60e51b815260206004820152600e60248201526d554e415554484f52495a45445f4f60901b604482015290519081900360640190fd5b806001600160a01b0381166123ec576040805162461bcd60e51b815260206004820152600c60248201526b5a45524f5f4144445245535360a01b604482015290519081900360640190fd5b600180546001600160a01b0319166001600160a01b0384169081179091556040805191825233602083015280517f94d4208cb05337821fef5da6205084b70818af988524d8a2609a53a1ac1033d19281900390910190a15050565b6114998383836133ea565b6001600160a01b03918216600090815260096020908152604080832093909416825291909152205460ff1690565b6001600160a01b0385166124c9576040805162461bcd60e51b815260206004820152601360248201526000805160206136fd833981519152604482015290519081900360640190fd5b6001600160a01b03861633148061250857506001600160a01b038616600090815260096020908152604080832033845290915290205460ff1615156001145b61254b576040805162461bcd60e51b815260206004820152600f60248201526e15539055551213d49256915117d4d5608a1b604482015290519081900360640190fd5b60008481526004602090815260408083206001600160a01b038a16845290915290205483146125a6576040805162461bcd60e51b8152602060048201526002602482015261495160f01b604482015290519081900360640190fd5b60008481526004602090815260408083206001600160a01b038a1684529091529020546125d39084612d19565b60008581526004602090815260408083206001600160a01b038b8116855292528083209390935587168152205461260b908490612d76565b60008581526004602081815260408084206001600160a01b03808c1680875291909352818520959095556002548151635711fd7760e01b81528c8416948101949094526024840195909552604483018990526064830188905251931692635711fd779260848084019391929182900301818387803b15801561268c57600080fd5b505af11580156126a0573d6000803e3d6000fd5b5050604080518781526020810187905281516001600160a01b03808b1695508b16935033926000805160206136dd833981519152928290030190a461271f338787878787878080601f01602080910402602001604051908101604052809392919081815260200183838082843760009201919091525061352692505050565b505050505050565b6001546001600160a01b03163314801561274b57506001546001600160a01b031615155b8061277557506003546001600160a01b03163314801561277557506003546001600160a01b031615155b612447576040805162461bcd60e51b815260206004820152600f60248201526e554e415554484f52495a45445f564b60881b604482015290519081900360640190fd5b6060816127dd57506040805180820190915260018152600360fc1b6020820152611037565b8160005b81156127f557600101600a820491506127e1565b6060816001600160401b038111801561280d57600080fd5b506040519080825280601f01601f191660200182016040528015612838576020820181803683370190505b50905060001982015b851561288657600a860660300160f81b8282806001900393508151811061286457fe5b60200101906001600160f81b031916908160001a905350600a86049550612841565b50949350505050565b6001600160a01b0384166128d8576040805162461bcd60e51b815260206004820152601360248201526000805160206136fd833981519152604482015290519081900360640190fd5b815183511461291c576040805162461bcd60e51b81526020600482015260186024820152600080516020613769833981519152604482015290519081900360640190fd5b60005b83518110156129e0576129976004600086848151811061293b57fe5b602002602001015181526020019081526020016000206000876001600160a01b03166001600160a01b031681526020019081526020016000205484838151811061298157fe5b6020026020010151612d7690919063ffffffff16565b600460008684815181106129a757fe5b602090810291909101810151825281810192909252604090810160009081206001600160a01b038a16825290925290205560010161291f565b50836001600160a01b031660006001600160a01b0316336001600160a01b03166000805160206136bd8339815191528686604051808060200180602001838103835285818151815260200191508051906020019060200280838360005b83811015612a55578181015183820152602001612a3d565b50505050905001838103825284818151815260200191508051906020019060200280838360005b83811015612a94578181015183820152602001612a7c565b5050505090500194505050505060405180910390a461140933600086868686612dd5565b826001600160a01b0316612acb82611bb4565b6001600160a01b031614612b17576040805162461bcd60e51b815260206004820152600e60248201526d15539055551213d49256915117d560921b604482015290519081900360640190fd5b6001600160a01b038216612b60576040805162461bcd60e51b815260206004820152601360248201526000805160206136fd833981519152604482015290519081900360640190fd5b600081815260086020908152604080832080546001600160a01b03199081169091556001600160a01b03878116855260068452828520805460001901905586811680865283862080546001908101909155878752600786529584902080549093161790915592548151632da3ce8d60e11b8152600481018690529151931692635b479d1a92602480840193919291829003018186803b158015612c0257600080fd5b505afa158015612c16573d6000803e3d6000fd5b505050506040513d6020811015612c2c57600080fd5b5051612c70576040805162461bcd60e51b815260206004820152600e60248201526d1195539114d7d49153115054d15160921b604482015290519081900360640190fd5b6002546040805163a2919f6360e01b81526001600160a01b0386811660048301528581166024830152604482018590529151919092169163a2919f6391606480830192600092919082900301818387803b158015612ccd57600080fd5b505af1158015612ce1573d6000803e3d6000fd5b5050505080826001600160a01b0316846001600160a01b031660008051602061378983398151915260405160405180910390a4505050565b600082821115612d70576040805162461bcd60e51b815260206004820152601e60248201527f536166654d6174683a207375627472616374696f6e206f766572666c6f770000604482015290519081900360640190fd5b50900390565b600082820183811015612dce576040805162461bcd60e51b815260206004820152601b60248201527a536166654d6174683a206164646974696f6e206f766572666c6f7760281b604482015290519081900360640190fd5b9392505050565b612de7846001600160a01b03166133e4565b1561271f5763bc197c8160e01b6001600160e01b031916846001600160a01b031663bc197c8188888787876040518663ffffffff1660e01b815260040180866001600160a01b03168152602001856001600160a01b03168152602001806020018060200180602001848103845287818151815260200191508051906020019060200280838360005b83811015612e87578181015183820152602001612e6f565b50505050905001848103835286818151815260200191508051906020019060200280838360005b83811015612ec6578181015183820152602001612eae565b50505050905001848103825285818151815260200191508051906020019080838360005b83811015612f02578181015183820152602001612eea565b50505050905090810190601f168015612f2f5780820380516001836020036101000a031916815260200191505b5098505050505050505050602060405180830381600087803b158015612f5457600080fd5b505af1158015612f68573d6000803e3d6000fd5b505050506040513d6020811015612f7e57600080fd5b50516001600160e01b0319161461271f576040805162461bcd60e51b815260206004820152600d60248201526c1393d517d4d5541413d4951151609a1b604482015290519081900360640190fd5b6001600160a01b038416613015576040805162461bcd60e51b815260206004820152601360248201526000805160206136fd833981519152604482015290519081900360640190fd5b60008381526004602090815260408083206001600160a01b03881684529091529020546130429083612d76565b60008481526004602090815260408083206001600160a01b038916808552908352818420949094558683526005825280832080546001600160a01b031916851790558051878152918201869052805133926000805160206136dd83398151915292908290030190a461140933600086868686613526565b6001600160a01b038216613102576040805162461bcd60e51b815260206004820152601360248201526000805160206136fd833981519152604482015290519081900360640190fd5b6000818152600760205260409020546001600160a01b03161561316b576040805162461bcd60e51b815260206004820152601c60248201527b115490cdcc8c4e881d1bdad95b88185b1c9958591e481b5a5b9d195960221b604482015290519081900360640190fd5b600081815260076020908152604080832080546001600160a01b0319166001600160a01b03871690811790915580845260069092528083208054600101905551839290600080516020613789833981519152908290a45050565b6001600160a01b03831661320e576040805162461bcd60e51b815260206004820152601360248201526000805160206136fd833981519152604482015290519081900360640190fd5b8051825114613252576040805162461bcd60e51b81526020600482015260186024820152600080516020613769833981519152604482015290519081900360640190fd5b60005b8251811015613316576132cd82828151811061326d57fe5b60200260200101516004600086858151811061328557fe5b602002602001015181526020019081526020016000206000876001600160a01b03166001600160a01b0316815260200190815260200160002054612d1990919063ffffffff16565b600460008584815181106132dd57fe5b602090810291909101810151825281810192909252604090810160009081206001600160a01b0389168252909252902055600101613255565b5060006001600160a01b0316836001600160a01b0316336001600160a01b03166000805160206136bd8339815191528585604051808060200180602001838103835285818151815260200191508051906020019060200280838360005b8381101561338b578181015183820152602001613373565b50505050905001838103825284818151815260200191508051906020019060200280838360005b838110156133ca5781810151838201526020016133b2565b5050505090500194505050505060405180910390a4505050565b3b151590565b6001600160a01b038316613433576040805162461bcd60e51b815260206004820152601360248201526000805160206136fd833981519152604482015290519081900360640190fd5b60008281526004602090815260408083206001600160a01b03871684529091529020546134609082612d19565b60008381526004602081815260408084206001600160a01b0389811680875291909352818520869055600354825163544c70f560e11b8152948501969096526024840152604483018790525193169263a898e1ea9260648084019391929182900301818387803b1580156134d357600080fd5b505af11580156134e7573d6000803e3d6000fd5b505060408051858152602081018590528151600094506001600160a01b038816935033926000805160206136dd833981519152928290030190a4505050565b613538846001600160a01b03166133e4565b1561271f5763f23a6e6160e01b6001600160e01b031916846001600160a01b031663f23a6e6188888787876040518663ffffffff1660e01b815260040180866001600160a01b03168152602001856001600160a01b0316815260200184815260200183815260200180602001828103825283818151815260200191508051906020019080838360005b838110156135d95781810151838201526020016135c1565b50505050905090810190601f1680156136065780820380516001836020036101000a031916815260200191505b509650505050505050602060405180830381600087803b158015612f5457600080fd5b828054600181600116156101000203166002900490600052602060002090601f016020900481019282601f1061366a57805160ff1916838001178555613697565b82800160010185558215613697579182015b8281111561369757825182559160200191906001019061367c565b506136a39291506136a7565b5090565b5b808211156136a357600081556001016136a856fe4a39dc06d4c0dbc64b70af90fd698a233a518aa5d07e595d983b8c0526c8f7fbc3d58168c5ae7397731d063d5bbf3d657854427343f4c083240f7aacaa2d0f62554e5350454349464945445f4144445245535300000000000000000000000000554e5350454349464945445f564f55434845524b45524e454c000000000000004552433732313a20617070726f76656420717565727920666f72206e6f6e6578697374656e7420746f6b656e4d49534d4154434845445f41525241595f4c454e475448530000000000000000ddf252ad1be2c89b69c2b068fc378daa952ba7f163c4a11628f55a4df523b3efa26469706673582212202a52b51d54c291bec9d6a94ff0848405dcd91e34ec356d1c6fb2d9e7c2b7d2f964736f6c63430007010033",
  "linkReferences": {},
  "deployedLinkReferences": {}
}